:1000000045C100005EC100005CC100005AC1000093
:1000100058C1000056C1000054C1000052C1000088
:1000200050C100004EC100004CC100004FC4000090
:1000300088C4000046C1000044C1000042C1000065
:1000400040C100003EC100003CC100003AC10000B8
:1000500038C1000036C1000034C1000032C10000C8
:1000600030C100002EC100002CC100002AC10000D8
:1000700028C10000302D393C6E756D3E09656E74E7
:100080006572206E756D6265720D0A3C6E756D3E0F
:100090007009097072696E74206E756D6265720DFB
:1000A0000A3C6E756D3E612D663C70696E3E09734B
:1000B000656C6563742070696E0D0A3C70696E3EF4
:1000C000693C6E756D3E09696E7075740D0A3C7001
:1000D000696E3E3C6E756D3E6F096F757470757418
:1000E0000D0A3C6E756D3E6D09096D736563206484
:1000F000656C61790D0A3C6E756D3E750909757305
:1001000065632064656C61790D0A3C6E756D3E55C2
:1001100009097573656320776169740D0A3C6E7512
:100120006D3E7B7D09097265706561740D0A6B3CDB
:100130006E756D3E09096C6F6F7020636F756E741C
:100140000D0A5F3C776F7264733E5F097072696E6F
:100150007420776F7264730D0A3C6E756D3E733C4C
:100160006E756D3E09616E616C6F672073616D70B5
:100170006C650D0A7609097072696E742076657275
:1001800073696F6E0D0A6809097072696E74206870
:10019000656C700D0A3C70696E3E743C6E756D3E08
:1001A0000970756C73652077696474680D0A000DB9
:1001B0000A0061743930757362313632000D0A00FD
:1001C0000D0A0000010000F7011200020000090200
:1001D00043000300004C020401030904500214020E
:1001E000030904660216030309047E020C0001C120
:1001F000120180260181261201000202000010C0B7
:10020000167A040001010203010902430002010001
:10021000C03209040000010202010005240010019F
:100220000524010101042402060524060001070536
:10023000820310004009040100020A0000000705C3
:1002400003022000000705840220000004030904C3
:10025000140359006F007500720020004E00610009
:100260006D00650000001603550053004200200099
:10027000530065007200690061006C0000000C030F
:1002800031003200330034003500000011241FBE5D
:10029000CFEFD2E0DEBFCDBF11E0A0E0B1E0E0E102
:1002A000FFE002C005900D92AA30B107D9F711E026
:1002B000AAE0B1E001C01D92A231B107E1F74DD231
:1002C00025C69ECECF93DF93EC018A30910528F0AE
:1002D0006AE070E007D6CB01F5DFCE016AE070E09E
:1002E00001D6805DAED2DF91CF910895CF93DF9399
:1002F000EC01FE0121968491882311F0A2D2F9CF5E
:10030000DF91CF9108952F923F924F925F926F921B
:100310007F928F929F92AF92BF92CF92DF92EF9295
:10032000FF920F931F93CF93DF93EC018091840092
:100330009091850090930B0180930A018824992461
:1003400041E0642E712C30E9232E31E0332EB8C108
:1003500021968B3609F44AC18C36C0F4873678F47E
:10036000813608F055C0803308F4AAC18A3360F1A1
:10037000853509F40BC18F3509F0A2C13DC188361E
:1003800009F451C1893609F09BC14BC0833709F488
:100390003CC1843748F48F3609F469C0803781F155
:1003A0008D3609F08DC19FC0853709F4E0C08537CF
:1003B00008F43CC1863709F430C18B3709F4FFC01B
:1003C0008D3709F07DC106C190E0C09790930D0173
:1003D00080930C010FC080910C0190910D016AE097
:1003E00070E06ED5820F911DC09790930D018093A0
:1003F0000C0121962881822F80538A3060F360C1DE
:1004000080910C0190910D015DDF80EC91E0FBC0CB
:1004100081568093000180910C01877080930101C7
:100420004FC18091000190E063E070E049D5FC018C
:10043000C3010090010102C0880F991F0A94E2F7DE
:10044000809521A1282321A38091000190E063E001
:1004500070E036D5FC0180A190E00090010102C05F
:10046000959587950A94E2F781709070D1C080913C
:100470000C01909100012091010180FF11C0892F92
:1004800090E063E070E01CD5FC01C30102C0880F5E
:10049000991F2A95E2F79C0182A1822B82A310C0AA
:1004A000892F90E063E070E00BD5FC01C30102C02E
:1004B000880F991F2A95E2F7809522A1282322A36D
:1004C0008091000190E063E070E0FAD4FC019301B8
:1004D0000090010102C0220F331F0A94E2F781A1AC
:1004E000822B81A3EDC060910C0170910D0180E021
:1004F00090E0C5D35B016C0120E030E04AE755E4B1
:100500004CD47B018C0120E030E040E85FE387D3EE
:1005100088231CF461E070E01EC0C801B70120E030
:100520003FEF4FE757E435D4181694F4C601B501F0
:1005300020E030E040E251E430D475D305C0C10181
:100540000197F1F76150704061157105C1F706C060
:10055000C801B70168D3CB010197F1F780918400FE
:100560009091850090930B0180930A01A9C080911E
:100570000C0190910D01A0E0B0E022E0880F991FDE
:10058000AA1FBB1F2A95D1F70197F1F720910C0103
:1005900030910D01220F331F60910A0170910B0100
:1005A0004091840050918500CA01861B970B8217E9
:1005B0009307B0F350930B0140930A0181C08090E0
:1005C0000C0190900D015C2E4D2E8991882311F025
:1005D0008D37D9F78114910409F472C00894810809
:1005E0009108852D942D9C01E9016AC090920D011E
:1005F00080920C0165C025D18991882311F08F3537
:10060000D1F78DEB91E072DE5BC080910C0104D3D9
:1006100090930D0180930C0153C082EB91E066DE54
:100620008FEA91E0F0CF84E790E0EDCF8091000178
:1006300090E063E070E044D4FC01C301009001014C
:1006400002C0880F991F0A94E2F7809521A1282300
:1006500021A38091000190E063E070E031D4FC01BF
:10066000DC019096C3010090010102C0880F991F20
:100670000A94E2F7982F60A1682320E030E04FEF62
:100680005FEF06C08C91415050408923861729F4B2
:100690002F5F3F4F41155105A9F730930D0120936E
:1006A0000C012115310561F004C08C918923861756
:1006B00019F02F5F3F4FC9F730930D0120930C01C4
:1006C0008881882309F044CEDF91CF911F910F914B
:1006D000FF90EF90DF90CF90BF90AF909F908F9062
:1006E0007F906F905F904F903F902F900895FF9272
:1006F0000F931F93CF93DF93EC01FF24062F10E09D
:10070000015010401DC078D09C018FEF2F3F38075B
:1007100071F02D303105C9F02A303105B1F0C90131
:1007200080978F35910560F42993F39409C061D0C7
:10073000882319F0C8D080FD03C018828FEF07C04E
:100740008F2D90E080179107F4F2188280E0DF91FE
:10075000CF911F910F91FF9008950F931F93DF93F7
:10076000CF93CDB7DEB7C054D0400FB6F894DEBFFC
:100770000FBECDBF80E88093610010926100569A51
:100780005E9A1092800082E0809381001092820035
:100790001AD02FD08823E9F380E197E220E931E0F5
:1007A000F9013197F1F70197D9F78E010F5F1F4FCC
:1007B0008AD080FFFDCFC80160E499DF8F3FC1F38D
:1007C000C801A1DDF8CF80EA8093D80086E089BD1A
:1007D00009B400FEFDCF80E88093D8001092E000BD
:1007E00010920E0110920F018CE08093E200789439
:1007F000089580910E0108952FB7F89480910E010D
:10080000882369F083E08093E9009BE68091E8000B
:1008100085FD09C082FF03C09093E800F7CF2FBF8A
:100820002FEF3FEF0CC09091F1008091E80085FD23
:1008300003C08BE68093E8002FBF292F30E0C90169
:100840000895482F80910E018823D9F12FB7F8948D
:1008500084E08093E90080911101882341F0809128
:10086000E80085FD02C02FBF12C0109211019091C7
:10087000E400975E34E08091E80085FD13C02FBF4F
:100880008091E400891729F481E0809311018FEFB2
:10089000089580910E018823A1F02FB7F89430932A
:1008A000E900E9CF4093F1008091E80085FD03C0A5
:1008B0008AE38093E80085E0809310012FBF80E0F9
:1008C00008958FEF089580910F0108951F920F9260
:1008D0000FB60F9211248F939F938091E100109295
:1008E000E100982F83FF11C01092E90081E080930E
:1008F000EB001092EC0082E18093ED0088E08093A1
:10090000F00010920E0110920F0192FF13C080911F
:100910000E01882379F080911001882359F08150CD
:1009200080931001882331F484E08093E9008AE306
:100930008093E8009F918F910F900FBE0F901F90B2
:1009400018951F920F920FB60F9211240F931F93B9
:100950002F933F934F935F936F937F938F939F93C7
:10096000AF93BF93EF93FF931092E9008091E8005B
:1009700083FF3CC14091F1003091F1008091F10082
:10098000682F70E02091F100922F80E0682B792B86
:100990008091F100A82FB0E02091F100922F80E02B
:1009A000A82BB92B1091F1000091F10082EF8093F8
:1009B000E800363009F05AC02AEC31E0A901455070
:1009C0005040F9013797859194918617970701F563
:1009D000FA01859194918A179B07D1F49A012E5FB1
:1009E0003F4FF901659174912E5F3F4FF90144919A
:1009F000212F30E0902F80E0282B392B2F3F31051D
:100A000019F010F02FEF30E0241758F4422F09C0EE
:100A1000295F3F4F495F5F4FF1E0243F3F0789F671
:100A2000E5C05EEF8091E800282F30E0C9018570B5
:100A30009070892BB9F322FDDCC0342F413108F0CE
:100A400030E1232FCB0106C0FC010196E491E09335
:100A5000F10021502223C1F7630F711D431B5093F6
:100A6000E8004423F9F63031E9F2C3C0353061F4CF
:100A70008EEF8093E8008091E80080FFFCCF862F06
:100A800080688093E300B5C0393051F5442309F004
:100A9000ADC060930E0110920F01109210018EEF05
:100AA0008093E80021E08DEE91E02093E900FC01C5
:100AB0000196E491E093EB00EE2369F0AC014F5F07
:100AC0005F4FFC0184918093EC00CA010196FA010A
:100AD00034913093ED002F5F253039F78EE181C0DE
:100AE000383061F4403809F081C08091E80080FF1F
:100AF000FCCF80910E018093F10050C0313289F417
:100B0000413A09F073C08091E80080FFFCCFE2E039
:100B1000F1E081918093F10081E0E930F807C9F7B5
:100B20003DC03032A1F4413209F060C08091E8004C
:100B300082FFFCCFE2E0F1E08091F100819381E05F
:100B4000E930F807C9F78BEF8093E80027C032320D
:100B500051F4413209F04AC060930F018091E800DE
:100B600080FFFCCF1BC03323E9F48091E80080FFB5
:100B7000FCCF423811F080E00DC0A093E9008091D5
:100B8000EB0090E025E0969587952A95E1F7817036
:100B90001092E9008093F1001092F1008EEF8093A3
:100BA000E80027C0313011F0333001F54230F1F464
:100BB000672BE1F42A2F2F77822F81508430B0F4F5
:100BC0008EEF8093E8002093E900333079F089E1DB
:100BD0008093EB0081E090E002C0880F991F2A9576
:100BE000E2F78093EA001092EA0003C081E280936A
:100BF000EB00FF91EF91BF91AF919F918F917F910A
:100C00006F915F914F913F912F911F910F910F9095
:100C10000FBE0F901F90189580E090E008956CD063
:100C200008F481E0089594D088F09F5790F0B92F90
:100C30009927B751A0F0D1F0660F771F881F991F31
:100C40001AF0BA95C9F712C0B13081F09BD0B1E06B
:100C5000089598C0672F782F8827B85F39F0B93F7B
:100C6000CCF3869577956795B395D9F73EF4909533
:100C70008095709561957F4F8F4F9F4F0895E894B1
:100C800009C097FB3EF490958095709561957F4FD4
:100C90008F4F9F4F9923A9F0F92F96E9BB27939582
:100CA000F695879577956795B795F111F8CFFAF492
:100CB000BB0F11F460FF1BC06F5F7F4F8F4F9F4FC3
:100CC00016C0882311F096E911C0772321F09EE821
:100CD000872F762F05C0662371F096E8862F70E087
:100CE00060E02AF09A95660F771F881FDAF7880F61
:100CF0009695879597F90895990F0008550FAA0BB7
:100D0000E0E8FEEF16161706E807F907C0F012161E
:100D10001306E407F50798F0621B730B840B950B21
:100D200039F40A2661F0232B242B252B21F4089576
:100D30000A2609F4A140A6958FEF811D811D089513
:100D400057FD9058440F551F59F05F3F71F047957C
:100D5000880F97FB991F61F09F3F79F08795089561
:100D6000121613061406551FF2CF4695F1DF08C080
:100D7000161617061806991FF1CF8695710561059D
:100D800008940895E894BB2766277727CB0197F945
:100D90000895B2DF08F48FEF08950AD080C071D0B3
:100DA00028F076D018F0952309F062C067C0EBCF29
:100DB000C7DFA8F39923D9F35523C9F3950F50E062
:100DC000551FAA27EE27FF27BB2700240894679505
:100DD00020F4E20FF31FB41F0A1E220F331F441F1B
:100DE000AA1F6695A9F7779530F4F30FB41F0A1E72
:100DF000121E08F46395330F441FAA1F221F769515
:100E000099F7879520F4B40F0A1E121E631F440F32
:100E1000AA1F221F331F8695A9F7862F712D602DDB
:100E200011249F5750408AF0E1F088234AF0EE0FDA
:100E3000FF1FBB1F661F771F881F91505040A9F7E7
:100E40009E3F510570F014C09ECF5F3FECF3983E7B
:100E5000DCF3869577956795B795F795E7959F5F4E
:100E6000C1F7FE2B880F911D9695879597F90895E8
:100E700097F99F6780E870E060E008959FEF80EC4D
:100E8000089500240A9416161706180609060895F0
:100E900000240A9412161306140605060895092E56
:100EA0000394000C11F4882352F0BB0F40F4BF2BC5
:100EB00011F460FF04C06F5F7F4F8F4F9F4F089505
:100EC0005527002480FF02C0060E571F660F771FAC
:100ED0006115710521F096958795009799F7952FE3
:100EE000802D0895AA1BBB1B51E107C0AA1FBB1F81
:100EF000A617B70710F0A61BB70B881F991F5A95A6
:100F0000A9F780959095BC01CD010895F894FFCF85
:0A0F1000030600E1000000000800E5
:00000001FF
