:100000003CC1000055C1000053C1000051C10000B7
:100010004FC100004DC100004BC1000049C10000AC
:1000200047C1000045C1000043C1000012C40000E8
:100030004BC400003DC100003BC1000039C10000BD
:1000400037C1000035C1000033C1000031C10000DC
:100050002FC100002DC100002BC1000029C10000EC
:1000600027C1000025C1000023C1000021C10000FC
:100070001FC10000302D393C6E756D3E09656E74F0
:100080006572206E756D6265720D0A3C6E756D3E0F
:100090007009097072696E74206E756D6265720DFB
:1000A0000A3C6E756D3E612D663C70696E3E09734B
:1000B000656C6563742070696E0D0A3C70696E3EF4
:1000C000693C6E756D3E09696E7075740D0A3C7001
:1000D000696E3E3C6E756D3E6F096F757470757418
:1000E0000D0A3C6E756D3E6D09096D736563206484
:1000F000656C61790D0A3C6E756D3E750909757305
:1001000065632064656C61790D0A3C6E756D3E7B9C
:100110007D09097265706561740D0A6B3C6E756DC1
:100120003E09096C6F6F7020636F756E740D0A5F06
:100130003C776F7264733E5F097072696E742077EA
:100140006F7264730D0A3C6E756D3E733C6E756D17
:100150003E09616E616C6F672073616D706C650D37
:100160000A7609097072696E742076657273696F18
:100170006E0D0A6809097072696E742068656C708A
:100180000D0A3C70696E3E743C6E756D3E0970756B
:100190006C73652077696474680D0A000D0A00614C
:1001A000743930757362313632000D0A000D0A0061
:1001B00000010000E4011200020000F60143000308
:1001C0000000390204010309043D0214020309047A
:1001D000530216030309046B020C0001C1120180D3
:1001E000260181261201000202000010C0167A04C6
:1001F00000010102030109024300020100C03209AB
:100200000400000102020100052400100105240180
:1002100001010424020605240600010705820310DB
:10022000004009040100020A000000070503022043
:100230000000070584022000000403090414035988
:10024000006F007500720020004E0061006D0065B7
:1002500000000016035500530042002000530065C3
:10026000007200690061006C0000000C0331003274
:100270000033003400350000000011241FBECFEF12
:10028000D2E0DEBFCDBF11E0A0E0B1E0E6E9FEE0E4
:1002900002C005900D92AA30B107D9F711E0AAE08B
:1002A000B1E001C01D92A031B107E1F720D2F1C544
:1002B000A7CECF93DF93EC018A30910528F06AE056
:1002C00070E0D3D5CB01F5DFCE016AE070E0CDD58B
:1002D000805D7AD2DF91CF910895CF93DF93EC01C7
:1002E000FE0121968491882311F06ED2F9CFDF911F
:1002F000CF9108952F923F924F925F926F927F928B
:100300008F929F92AF92BF92CF92DF92EF92FF9225
:100310000F931F93CF93DF93EC018824992440E936
:10032000242E41E0342E31E0632E712C93C12196AE
:100330008D3609F4C4C08E36C0F4873660F4813639
:1003400008F052C0803308F485C18A3348F18F35F4
:1003500009F080C11BC1893609F44FC08B3609F4FE
:100360000FC1883609F076C128C1843709F428C145
:10037000853748F4803781F1833709F410C18F360F
:1003800009F068C160C0863709F411C1863708F4E6
:10039000D0C08B3709F4DDC08D3709F05BC1E4C0F4
:1003A00090E0C09790930B0180930A010FC0809159
:1003B0000A0190910B016AE070E045D5820F911D12
:1003C000C09790930B0180930A0121962881822F78
:1003D00080538A3060F33EC180910A0190910B01F5
:1003E00068DF8DEA91E0D9C0815680930001809149
:1003F0000A018770809301012DC18091000190E076
:1004000063E070E020D5FC01C3010090010102C04F
:10041000880F991F0A94E2F7809521A1282321A330
:100420008091000190E063E070E00DD5FC0180A1B7
:1004300090E00090010102C0959587950A94E2F73B
:1004400081709070AFC080910A019091000120915D
:10045000010180FF11C0892F90E063E070E0F3D4C8
:10046000FC01C30102C0880F991F2A95E2F79C0185
:1004700082A1822B82A310C0892F90E063E070E0FC
:10048000E2D4FC01C30102C0880F991F2A95E2F74C
:10049000809522A1282322A38091000190E063E0AF
:1004A00070E0D1D4FC0193010090010102C0220F41
:1004B000331F0A94E2F781A1822B81A3CBC0609104
:1004C0000A0170910B0180E090E09CD35B016C010C
:1004D00020E030E04AE755E423D47B018C0120E0A2
:1004E00030E040E85FE35ED388231CF461E070E015
:1004F0001EC0C801B70120E03FEF4FE757E40CD41E
:10050000181694F4C601B50120E030E040E251E451
:1005100007D44CD305C0C1010197F1F76150704079
:1005200061157105C1F796C0C801B7013FD3CB0172
:100530000DC080910A0190910B01A0E0B0E022E093
:10054000880F991FAA1FBB1F2A95D1F70197F1F7B2
:1005500081C080900A0190900B015C2E4D2E8991F4
:10056000882311F08D37D9F78114910409F472C0F2
:10057000089481089108852D942D9C01E9016AC099
:1005800090920B0180920A0165C01ED18991882347
:1005900011F08F35D1F78AEA91E09FDE5BC0809140
:1005A0000A01FDD290930B0180930A0153C08FE999
:1005B00091E093DE8CE991E0F0CF84E790E0EDCF1D
:1005C0008091000190E063E070E03DD4FC01C30144
:1005D0000090010102C0880F991F0A94E2F78095EC
:1005E00021A1282321A38091000190E063E070E025
:1005F0002AD4FC01DC019096C3010090010102C0E5
:10060000880F991F0A94E2F7982F60A1682320E0D1
:1006100030E04FEF5FEF06C08C914150504089238E
:10062000861729F42F5F3F4F41155105A9F73093E5
:100630000B0120930A012115310561F004C08C9152
:100640008923861719F02F5F3F4FC9F730930B01AD
:1006500020930A018881882309F069CEDF91CF9128
:100660001F910F91FF90EF90DF90CF90BF90AF90D0
:100670009F908F907F906F905F904F903F902F90C2
:100680000895FF920F931F93CF93DF93EC01FF2404
:10069000062F10E0015010401DC071D09C018FEF5B
:1006A0002F3F380771F02D303105C9F02A30310560
:1006B000B1F0C90180978F35910560F42993F394C7
:1006C00009C05AD0882319F0C1D080FD03C0188218
:1006D0008FEF07C08F2D90E080179107F4F21882FA
:1006E00080E0DF91CF911F910F91FF9008950F93BC
:1006F0001F93DF93CF93CDB7DEB7C054D0400FB672
:10070000F894DEBF0FBECDBF80E8809361001092E9
:100710006100569A5E9A1AD02FD08823E9F380E1BF
:1007200097E220E931E0F9013197F1F70197D9F724
:100730008E010F5F1F4F8AD080FFFDCFC80160E49C
:10074000A0DF8F3FC1F3C801D5DDF8CF80EA8093E9
:10075000D80086E089BD09B400FEFDCF80E8809313
:10076000D8001092E00010920C0110920D018CE064
:100770008093E2007894089580910C0108952FB73A
:10078000F89480910C01882369F083E08093E9005C
:100790009BE68091E80085FD09C082FF03C090932D
:1007A000E800F7CF2FBF2FEF3FEF0CC09091F10083
:1007B0008091E80085FD03C08BE68093E8002FBFA1
:1007C000292F30E0C9010895482F80910C0188231A
:1007D000D9F12FB7F89484E08093E90080910F015C
:1007E000882341F08091E80085FD02C02FBF12C030
:1007F00010920F019091E400975E34E08091E80040
:1008000085FD13C02FBF8091E400891729F481E092
:1008100080930F018FEF089580910C018823A1F040
:100820002FB7F8943093E900E9CF4093F10080911D
:10083000E80085FD03C08AE38093E80085E08093AB
:100840000E012FBF80E008958FEF089580910D0174
:1008500008951F920F920FB60F9211248F939F93BA
:100860008091E1001092E100982F83FF11C0109257
:10087000E90081E08093EB001092EC0082E180932C
:10088000ED0088E08093F00010920C0110920D01B1
:1008900092FF13C080910C01882379F080910E01A2
:1008A000882359F0815080930E01882331F484E02D
:1008B0008093E9008AE38093E8009F918F910F90E5
:1008C0000FBE0F901F9018951F920F920FB60F92A8
:1008D00011240F931F932F933F934F935F936F9325
:1008E0007F938F939F93AF93BF93EF93FF93109258
:1008F000E9008091E80083FF3CC14091F100309114
:10090000F1008091F100682F70E02091F100922FAA
:1009100080E0682B792B8091F100A82FB0E0209126
:10092000F100922F80E0A82BB92B1091F1000091DB
:10093000F10082EF8093E800363009F05AC027EBCF
:1009400031E0A90145505040F901379785919491C4
:100950008617970701F5FA01859194918A179B07ED
:10096000D1F49A012E5F3F4FF901659174912E5F8A
:100970003F4FF9014491212F30E0902F80E0282B48
:10098000392B2F3F310519F010F02FEF30E02417ED
:1009900058F4422F09C0295F3F4F495F5F4FF1E094
:1009A000213E3F0789F6E5C05EEF8091E800282FE1
:1009B00030E0C90185709070892BB9F322FDDCC04D
:1009C000342F413108F030E1232FCB0106C0FC0168
:1009D0000196E491E093F10021502223C1F7630FC7
:1009E000711D431B5093E8004423F9F63031E9F2BE
:1009F000C3C0353061F48EEF8093E8008091E80049
:100A000080FFFCCF862F80688093E300B5C039302B
:100A100051F5442309F0ADC060930C0110920D0113
:100A200010920E018EEF8093E80021E08AED91E0B4
:100A30002093E900FC010196E491E093EB00EE23A2
:100A400069F0AC014F5F5F4FFC0184918093EC0033
:100A5000CA010196FA0134913093ED002F5F2530E1
:100A600039F78EE181C0383061F4403809F081C037
:100A70008091E80080FFFCCF80910C018093F10011
:100A800050C0313289F4413A09F073C08091E800D6
:100A900080FFFCCFE2E0F1E081918093F10081E002
:100AA000E930F807C9F73DC03032A1F4413209F00E
:100AB00060C08091E80082FFFCCFE2E0F1E080912D
:100AC000F100819381E0E930F807C9F78BEF80935B
:100AD000E80027C0323251F4413209F04AC0609335
:100AE0000D018091E80080FFFCCF1BC03323E9F4A7
:100AF0008091E80080FFFCCF423811F080E00DC00B
:100B0000A093E9008091EB0090E025E09695879511
:100B10002A95E1F781701092E9008093F10010921C
:100B2000F1008EEF8093E80027C0313011F03330B0
:100B300001F54230F1F4672BE1F42A2F2F77822F51
:100B400081508430B0F48EEF8093E8002093E90068
:100B5000333079F089E18093EB0081E090E002C0CE
:100B6000880F991F2A95E2F78093EA001092EA0015
:100B700003C081E28093EB00FF91EF91BF91AF91B1
:100B80009F918F917F916F915F914F913F912F91A5
:100B90001F910F910F900FBE0F901F90189580E03E
:100BA00090E008956CD008F481E0089594D088F026
:100BB0009F5790F0B92F9927B751A0F0D1F0660F49
:100BC000771F881F991F1AF0BA95C9F712C0B13064
:100BD00081F09BD0B1E0089598C0672F782F8827C7
:100BE000B85F39F0B93FCCF3869577956795B395A3
:100BF000D9F73EF490958095709561957F4F8F4F12
:100C00009F4F0895E89409C097FB3EF49095809516
:100C1000709561957F4F8F4F9F4F9923A9F0F92FC2
:100C200096E9BB279395F695879577956795B79540
:100C3000F111F8CFFAF4BB0F11F460FF1BC06F5F26
:100C40007F4F8F4F9F4F16C0882311F096E911C038
:100C5000772321F09EE8872F762F05C0662371F059
:100C600096E8862F70E060E02AF09A95660F771F6D
:100C7000881FDAF7880F9695879597F90895990F49
:100C80000008550FAA0BE0E8FEEF16161706E80756
:100C9000F907C0F012161306E407F50798F0621B77
:100CA000730B840B950B39F40A2661F0232B242B4C
:100CB000252B21F408950A2609F4A140A6958FEF6B
:100CC000811D811D089557FD9058440F551F59F0FF
:100CD0005F3F71F04795880F97FB991F61F09F3F29
:100CE00079F087950895121613061406551FF2CF52
:100CF0004695F1DF08C0161617061806991FF1CFA2
:100D000086957105610508940895E894BB276627C8
:100D10007727CB0197F90895B2DF08F48FEF089594
:100D20000AD080C071D028F076D018F0952309F051
:100D300062C067C0EBCFC7DFA8F39923D9F355236F
:100D4000C9F3950F50E0551FAA27EE27FF27BB27B1
:100D500000240894679520F4E20FF31FB41F0A1EC5
:100D6000220F331F441FAA1F6695A9F7779530F409
:100D7000F30FB41F0A1E121E08F46395330F441FAD
:100D8000AA1F221F769599F7879520F4B40F0A1EA3
:100D9000121E631F440FAA1F221F331F8695A9F737
:100DA000862F712D602D11249F5750408AF0E1F05D
:100DB00088234AF0EE0FFF1FBB1F661F771F881F97
:100DC00091505040A9F79E3F510570F014C09ECF3E
:100DD0005F3FECF3983EDCF3869577956795B79582
:100DE000F795E7959F5FC1F7FE2B880F911D9695AC
:100DF000879597F9089597F99F6780E870E060E01C
:100E000008959FEF80EC089500240A9416161706A3
:100E100018060906089500240A94121613061406EB
:100E200005060895092E0394000C11F4882352F04E
:100E3000BB0F40F4BF2B11F460FF04C06F5F7F4F06
:100E40008F4F9F4F08955527002480FF02C0060E44
:100E5000571F660F771F6115710521F096958795CD
:100E6000009799F7952F802D0895AA1BBB1B51E180
:100E700007C0AA1FBB1FA617B70710F0A61BB70B0A
:100E8000881F991F5A95A9F780959095BC01CD01AF
:060E90000895F894FFCF65
:0A0E9600030600E100000000080060
:00000001FF
