:100000005EC1000077C1000075C1000073C100002F
:1000100071C100006FC100006DC100006BC1000024
:1000200069C1000067C1000053C400008CC4000017
:1000300061C100005FC100005DC100005BC1000044
:1000400059C1000057C1000055C1000053C1000054
:1000500051C100004FC100004DC100004BC1000064
:1000600049C1000047C1000045C1000043C1000074
:1000700041C100003FC100003DC100003BC1000084
:1000800039C1000037C1000035C1000033C1000094
:1000900031C100002FC100002DC100002BC10000A4
:1000A00029C1000027C1000025C10000302D393CC6
:1000B0006E756D3E09656E746572206E756D626554
:1000C000720D0A3C6E756D3E7009097072696E742E
:1000D000206E756D6265720D0A3C6E756D3E612D08
:1000E000663C70696E3E0973656C65637420706967
:1000F0006E0D0A3C70696E3E693C6E756D3E096915
:100100006E7075740D0A3C70696E3E3C6E756D3E86
:100110006F096F75747075740D0A3C6E756D3E6D68
:1001200009096D7365632064656C61790D0A3C6E25
:10013000756D3E750909757365632064656C617939
:100140000D0A3C6E756D3E7B7D09097265706561B7
:10015000740D0A6B3C6E756D3E09096C6F6F7020F3
:10016000636F756E740D0A5F3C776F7264733E5FE8
:10017000097072696E7420776F7264730D0A3C6E39
:10018000756D3E733C6E756D3E09616E616C6F6797
:100190002073616D706C650D0A7609097072696E65
:1001A000742076657273696F6E0D0A680909707242
:1001B000696E742068656C700D0A3C70696E3E74DF
:1001C0003C6E756D3E0970756C736520776964745B
:1001D000680D0A000D0A0061746D65676133327540
:1001E00034000D0A000D0A00000100001C0212007C
:1001F0000200002E02430003000071020401030903
:1002000004750214020309048B021603030904A3F4
:10021000020C0001C1120180360181361201000278
:1002200002000010C0167A04000101020301090255
:100230004300020100C03209040000010202010073
:1002400005240010010524010101042402060524EF
:100250000600010705820310004009040100020A9C
:10026000000000070503024000000705840240006B
:100270000004030904140359006F00750072002084
:10028000004E0061006D006500000016035500532C
:100290000042002000530065007200690061006C9C
:1002A0000000000C03310032003300340035000040
:1002B0000000010405060725242322212000112423
:1002C0001FBECFEFDAE0DEBFCDBF11E0A0E0B1E0AE
:1002D000E8E3FFE002C005900D92AA30B107D9F71C
:1002E00011E0AAE0B1E001C01D92A231B107E1F72F
:1002F00033D220C685CECF93DF93EC018A309105AF
:1003000028F06AE070E002D6CB01F5DFCE016AE0AA
:1003100070E0FCD5805D97D2DF91CF910895CF93A7
:10032000DF93EC01FE0121968491882311F08BD29A
:10033000F9CFDF91CF9108953F924F925F926F92E4
:100340007F928F929F92AF92BF92CF92DF92EF9265
:10035000FF920F931F93CF93DF93EC018091840062
:100360009091850090930B0180930A018824992431
:10037000E1E06E2E712C73E0572EA2C121968D36CE
:1003800009F4C3C08E36C0F4873660F4813608F0B5
:100390005AC0803308F494C18A3348F18F3509F08C
:1003A0008FC12EC1893609F457C08B3609F422C19A
:1003B000883609F085C13BC1843709F43BC18537D4
:1003C00048F48037C1F1833709F423C18F3609F02F
:1003D00077C167C0863709F424C1863708F4DAC0CC
:1003E0008B3709F4F0C08D3709F06AC1F7C090E08F
:1003F000C09790930D0180930C0117C080910C0160
:1004000090910D019C0163E0220F331F6A95E1F783
:10041000880F991F280F391F240F311D205330409A
:1004200030930D0120930C0121964881842F805335
:100430008A3020F345C180910C0190910D015BDF62
:1004400085EE91E0E4C081568093000180910C011B
:1004500087708093010134C1E0910001E59DF001B6
:100460001124C3010090010102C0880F991F0A9452
:10047000E2F7809521A1282321A38091000190E03B
:10048000FC01EE0FFF1FE80FF91F80A190E0009024
:10049000010102C0959587950A94E2F781709070EA
:1004A000BBC080910C01909100012091010180FF5F
:1004B0000EC0959DF0011124C30102C0880F991F41
:1004C0002A95E2F79C0182A1822B82A30DC0959D03
:1004D000F0011124C30102C0880F991F2A95E2F789
:1004E000809522A1282322A3E0910001E59DF0013F
:1004F000112493010090010102C0220F331F0A94BE
:10050000E2F781A1822B81A3DBC060910C01709185
:100510000D0180E090E0E1D35B016C0120E030E070
:100520004AE755E468D47B018C0120E030E040E8E4
:100530005FE3A3D388231CF461E070E01FC0C8010F
:10054000B70120E03FEF4FE757E451D418169CF471
:10055000C601B50120E030E040E251E44CD491D333
:1005600006C080E991E00197F1F761507040611594
:100570007105B9F706C0C801B70183D3CB01019754
:10058000F1F7809184009091850090930B01809306
:100590000A0196C020910C0130910D01220F331FEA
:1005A00060910A0170910B01409184005091850087
:1005B000CA01861B970B82179307B0F350930B0168
:1005C00040930A017DC080900C0190900D013C2E5B
:1005D0004D2E8991882311F08D37D9F7811491041C
:1005E00009F46EC0089481089108832D942D9C0114
:1005F000E90166C090920D0180920C0161C023D187
:100600008991882311F08F35D1F782EE91E087DE52
:1006100057C080910C0122D390930D0180930C015F
:100620004FC087ED91E07BDE84ED91E0F0CF8CEA66
:1006300090E0EDCFE0910001E59DF0011124C301B0
:100640000090010102C0880F991F0A94E2F780957B
:1006500021A1282321A3E0910001E59DF0011124AF
:10066000DF019096C3010090010102C0880F991F1D
:100670000A94E2F7982F60A1682320E030E04FEF62
:100680005FEF06C08C91415050408923861729F4B2
:100690002F5F3F4F41155105A9F730930D0120936E
:1006A0000C012115310561F004C08C918923861756
:1006B00019F02F5F3F4FC9F730930D0120930C01C4
:1006C0008881882309F05ACEDF91CF911F910F9135
:1006D000FF90EF90DF90CF90BF90AF909F908F9062
:1006E0007F906F905F904F903F900895FF920F938F
:1006F0001F93CF93DF93EC01FF24062F10E00150EE
:1007000010401DC07BD09C018FEF2F3F380771F048
:100710002D303105C9F02A303105B1F0C90180977B
:100720008F35910560F42993F39409C064D0882330
:1007300019F0CBD080FD03C018828FEF07C08F2D3A
:1007400090E080179107F4F2188280E0DF91CF915A
:100750001F910F91FF9008950F931F93DF93CF93F5
:10076000CDB7DEB7C054D0400FB6F894DEBF0FBE91
:10077000CDBF80E88093610010926100569A5E9A26
:100780001092800082E080938100109282001AD043
:1007900032D08823E9F380E197E220E931E0F901E2
:1007A0003197F1F70197D9F78E010F5F1F4F8DD069
:1007B00080FFFDCFC80160E499DF8F3FC1F3C8011E
:1007C000BBDDF8CF81E08093D70080EA8093D8002A
:1007D00082E189BD09B400FEFDCF80E98093D80095
:1007E0001092E00010920E0110920F018CE08093A5
:1007F000E2007894089580910E0108952FB7F8943F
:1008000080910E01882369F083E08093E9009BE6E4
:100810008091E80085FD09C082FF03C09093E80045
:10082000F7CF2FBF2FEF3FEF0CC09091F1008091D9
:10083000E80085FD03C08BE68093E8002FBF292FD9
:1008400030E0C9010895482F80910E018823D9F125
:100850002FB7F89484E08093E900809111018823F8
:1008600041F08091E80085FD02C02FBF12C01092B8
:1008700011019091E400975E34E08091E80085FDDD
:1008800013C02FBF8091E400891729F481E0809381
:1008900011018FEF089580910E018823A1F02FB7E9
:1008A000F8943093E900E9CF4093F1008091E8009B
:1008B00085FD03C08AE38093E80085E08093100102
:1008C0002FBF80E008958FEF089580910F01089564
:1008D0001F920F920FB60F9211248F939F938091C6
:1008E000E1001092E100982F83FF11C01092E900FF
:1008F00081E08093EB001092EC0082E18093ED00A8
:1009000088E08093F00010920E0110920F0192FF88
:1009100013C080910E01882379F080911001882303
:1009200059F0815080931001882331F484E0809342
:10093000E9008AE38093E8009F918F910F900FBEAA
:100940000F901F9018951F920F920FB60F921124BF
:100950000F931F932F933F934F935F936F937F93C7
:100960008F939F93AF93BF93EF93FF931092E90000
:100970008091E80083FF3CC14091F1003091F1008B
:100980008091F100682F70E02091F100922F80E0BB
:10099000682B792B8091F100A82FB0E02091F10015
:1009A000922F80E0A82BB92B1091F1000091F1005B
:1009B00082EF8093E800363009F05AC02FEE31E024
:1009C000A90145505040F9013797859194918617B8
:1009D000970701F5FA01859194918A179B07D1F445
:1009E0009A012E5F3F4FF901659174912E5F3F4F41
:1009F000F9014491212F30E0902F80E0282B392BF2
:100A00002F3F310519F010F02FEF30E0241758F484
:100A1000422F09C0295F3F4F495F5F4FF2E0293104
:100A20003F0789F6E5C05EEF8091E800282F30E0AF
:100A3000C90185709070892BB9F322FDDCC0342F79
:100A4000413108F030E1232FCB0106C0FC010196B3
:100A5000E491E093F10021502223C1F7630F711D4F
:100A6000431B5093E8004423F9F63031E9F2C3C048
:100A7000353061F48EEF8093E8008091E80080FFCC
:100A8000FCCF862F80688093E300B5C0393051F5E4
:100A9000442309F0ADC060930E0110920F01109233
:100AA00010018EEF8093E80082E192E021E0209334
:100AB000E900FC010196E491E093EB00EE2369F07C
:100AC000AC014F5F5F4FFC0184918093EC00CA0141
:100AD0000196FA0134913093ED002F5F253039F7FC
:100AE0008EE181C0383061F4403809F081C08091D6
:100AF000E80080FFFCCF80910E018093F10050C090
:100B0000313289F4413A09F073C08091E80080FFE6
:100B1000FCCFE2E0F1E081918093F10081E0E930E7
:100B2000F807C9F73DC03032A1F4413209F060C086
:100B30008091E80082FFFCCFE2E0F1E08091F100DB
:100B4000819381E0E930F807C9F78BEF8093E800E3
:100B500027C0323251F4413209F04AC060930F018C
:100B60008091E80080FFFCCF1BC03323E9F4809123
:100B7000E80080FFFCCF423811F080E00DC0A09368
:100B8000E9008091EB0090E025E0969587952A9505
:100B9000E1F781701092E9008093F1001092F1006A
:100BA0008EEF8093E80027C0313011F0333001F52B
:100BB0004230F1F4672BE1F42A2F2F77822F8150F6
:100BC0008430B0F48EEF8093E8002093E900333056
:100BD00079F089E18093EB0081E090E002C0880F1A
:100BE000991F2A95E2F78093EA001092EA0003C069
:100BF00081E28093EB00FF91EF91BF91AF919F91C4
:100C00008F917F916F915F914F913F912F911F91A4
:100C10000F910F900FBE0F901F90189596E890932C
:100C20007A00982F9072906890937B008F719091CA
:100C30000901982B90937C0086EC80937A00809138
:100C40007A0086FDFCCF2091780040917900942FA6
:100C500080E030E0282B392BC90108958C3018F042
:100C600020E030E008C0E82FF0E0EF54FD4FE491C1
:100C70008E2FD4DF9C01C90108956CD008F481E067
:100C8000089594D088F09F5790F0B92F9927B751C5
:100C9000A0F0D1F0660F771F881F991F1AF0BA9540
:100CA000C9F712C0B13081F09BD0B1E0089598C06F
:100CB000672F782F8827B85F39F0B93FCCF3869536
:100CC00077956795B395D9F73EF490958095709593
:100CD00061957F4F8F4F9F4F0895E89409C097FB10
:100CE0003EF490958095709561957F4F8F4F9F4F03
:100CF0009923A9F0F92F96E9BB279395F695879547
:100D000077956795B795F111F8CFFAF4BB0F11F409
:100D100060FF1BC06F5F7F4F8F4F9F4F16C08823B0
:100D200011F096E911C0772321F09EE8872F762FE6
:100D300005C0662371F096E8862F70E060E02AF027
:100D40009A95660F771F881FDAF7880F9695879513
:100D500097F90895990F0008550FAA0BE0E8FEEFE8
:100D600016161706E807F907C0F012161306E4076F
:100D7000F50798F0621B730B840B950B39F40A2668
:100D800061F0232B242B252B21F408950A2609F446
:100D9000A140A6958FEF811D811D089557FD9058A4
:100DA000440F551F59F05F3F71F04795880F97FB2F
:100DB000991F61F09F3F79F08795089512161306E9
:100DC0001406551FF2CF4695F1DF08C01616170618
:100DD0001806991FF1CF869571056105089408954D
:100DE000E894BB2766277727CB0197F90895B2DFF0
:100DF00008F48FEF08950BD078C069D028F06ED03A
:100E000018F0952309F05AC05FC01124EACFC6DF5D
:100E1000A0F3959FD1F3950F50E0551F629FF0010D
:100E2000729FBB27F00DB11D639FAA27F00DB11D66
:100E3000AA1F649F6627B00DA11D661F829F2227EF
:100E4000B00DA11D621F739FB00DA11D621F839F76
:100E5000A00D611D221F749F3327A00D611D231F4C
:100E6000849F600D211D822F762F6A2F11249F579A
:100E700050408AF0E1F088234AF0EE0FFF1FBB1FBD
:100E8000661F771F881F91505040A9F79E3F51055C
:100E900070F014C0A6CF5F3FECF3983EDCF386956C
:100EA00077956795B795F795E7959F5FC1F7FE2B07
:100EB000880F911D9695879597F9089597F99F67E3
:100EC00080E870E060E008959FEF80EC08950024D2
:100ED0000A941616170618060906089500240A949F
:100EE00012161306140605060895092E0394000C25
:100EF00011F4882352F0BB0F40F4BF2B11F460FFB4
:100F000004C06F5F7F4F8F4F9F4F0895AA1BBB1B7D
:100F100051E107C0AA1FBB1FA617B70710F0A61BF9
:100F2000B70B881F991F5A95A9F780959095BC011A
:080F3000CD010895F894FFCFF4
:0A0F3800030600E10000000008407D
:00000001FF
